:020000040800F2
:1000000000A00020A923000835230008372300089A
:10001000392300083B2300083D23000800000000AE
:100020000000000000000000000000003F23000866
:100030004123000800000000432300084523000876
:10004000F9230008F9230008F9230008F923000820
:10005000F9230008F9230008F9230008F923000810
:10006000F9230008F9230008F9230008F923000800
:10007000F9230008F9230008F92300084D2300089C
:10008000F9230008F9230008F9230008F9230008E0
:10009000F9230008F9230008F9230008F9230008D0
:1000A000F9230008F9230008F9230008F9230008C0
:1000B000F9230008F9230008F9230008F9230008B0
:1000C000F9230008F9230008F9230008F9230008A0
:1000D000F9230008F9230008F9230008F923000890
:1000E000F9230008F9230008F9230008F923000880
:1000F000F9230008F9230008F9230008F923000870
:10010000000000000000000000000000F9230008CB
:10011000F9230008F9230008F9230008F92300084F
:10012000F9230008F9230008F9230008F92300083F
:10013000F9230008F9230008000000000000000077
:10014000F9230008F9230008F92300080000000043
:10015000000000000000000000000000000000009F
:100160000000000000000000F9230008F923000847
:10017000F92300080000000000000000000000005B
:0801800000000000F923000853
:1001C00010B5054C237833B9044B13B10448AFF391
:1001D00000800123237010BD4C08002000000000A7
:1001E000F434000808B5034B1BB103490348AFF3CF
:1001F000008008BD0000000050080020F434000812
:1002000090F800F06DE9024520F007016FF0000C56
:1002100010F0070491F820F040F049804FF00004FE
:100220006FF00700D1E9002391F840F000F10800D9
:1002300082FA4CF2A4FA8CF283FA4CF3A2FA8CF311
:100240004BBBD1E9022382FA4CF200F10800A4FA78
:100250008CF283FA4CF3A2FA8CF3E3B9D1E90423CC
:1002600082FA4CF200F10800A4FA8CF283FA4CF303
:10027000A2FA8CF37BB9D1E9062301F1200182FABD
:100280004CF200F10800A4FA8CF283FA4CF3A2FAC3
:100290008CF3002BC6D0002A04BF04301A4612BAD1
:1002A000B2FA82F2FDE8024500EBD2007047D1E9D4
:1002B000002304F00305C4F100004FEAC50514F063
:1002C000040F91F840F00CFA05F562EA05021CBF34
:1002D00063EA050362464FF00004A9E710B504463F
:1002E0000E4B18784FF47A73B3FBF0F30C4A106896
:1002F000B0FBF3F000F094F868B90F2C01D901209D
:100300000AE0002221464FF0FF3000F043F8054B91
:100310001C60002000E0012010BD00BF0000002094
:10032000080000200400002008B5074A136843F0C5
:1003300010031360032000F01BF80020FFF7CEFF2E
:1003400001F0EEFE002008BD00200240034A1168C3
:10035000034B1B780B441360704700BF68080020F4
:1003600000000020014B1868704700BF680800209B
:10037000074AD36823F4E0631B041B0C000200F45B
:10038000E060034343F0BF6343F40033D36070473E
:1003900000ED00E000B5194BDB68C3F30223C3F1A5
:1003A000070CBCF1040F28BF4FF0040C03F1040E3E
:1003B000BEF1060F18D9033B4FF0FF3E0EFA0CFCBE
:1003C00021EA0C0199400EFA03F322EA03031943D0
:1003D00000280BDB0901C9B200F1604000F5614063
:1003E00080F800135DF804FB0023E5E700F00F0040
:1003F0000901C9B2024B1954F4E700BF00ED00E057
:1004000014ED00E0002807DB00F01F024009012383
:100410009340024A42F82030704700BF00E100E0FC
:100420000138B0F1807F0BD24FF0E0235861054ACC
:10043000F02182F823100020986107221A6170478A
:100440000120704700ED00E002680C4B9A420AD888
:100450000B4B13440B4AA2FB03231B099B000364B1
:10046000094BC3637047094B1344064AA2FB03239D
:100470001B099B000364064BC363704707040240DB
:10048000F8FFFDBFCDCCCCCC00000240F8FBFDBF97
:100490000004024020B310B50446022380F8213046
:1004A00001680A6822F47F5222F0300243688068B3
:1004B0000343E06803432069034360690343A06981
:1004C0000343E069034313430B602046FFF7BCFF7F
:1004D0000020A063012384F8213084F8200010BD9F
:1004E0000120704738B5C36B1A6804682568016C31
:1004F00004238B40134213D015F0040F10D023684F
:1005000013F0200F03D1236823F004032360016C50
:10051000C26B04238B405360C36A03B1984738BD54
:1005200002238B4013421AD015F0020F17D0236814
:1005300013F0200F06D1236823F00A032360012360
:1005400080F82130016CC26B02238B405360002382
:1005500080F82030836A002BE1D09847DFE708233A
:1005600003FA01F11142DAD015F0080FD7D0236851
:1005700023F00E032360026CC16B012303FA02F225
:100580004A60836380F82130002380F82030036BB9
:10059000002BC4D09847C2E770B582B0002365E055
:1005A00085685E000324B44025EA0405CC68B440A5
:1005B0002C438460446824EA0C0C4C68C4F3001497
:1005C0009C4044EA0C04446061E0DD08083550F8C2
:1005D000256003F007044FEA840C0F2404FA0CF49E
:1005E00026EA040E0C6904FA0CF444EA0E0440F8FE
:1005F000254063E0042400E0002404FA0EF42C43B8
:100600000CF1020C544D45F82C40544C2568D44351
:1006100025EA0206D1F804C01CF4803F01D042EA6A
:1006200005064E4D2E606D6804EA0506D1F804C03B
:100630001CF4003F01D042EA0506484D6E60AD68EB
:1006400004EA0506D1F804C01CF4801F01D042EA78
:100650000506424DAE60ED682C404E6816F4001F52
:1006600001D042EA05043D4AD46001330A6832FAF7
:1006700003F46ED04FF0010C0CFA03FC1CEA0202EA
:10068000F3D04C6804F00304013C012C88D94C6879
:1006900004F00304032C0CD0C4685D004FF0030C7D
:1006A0000CFA05FC24EA0C0C8C68AC4044EA0C04FF
:1006B000C4604C6804F00304022C86D004684FEA3E
:1006C000430E4FF0030C0CFA0EFC24EA0C0C4C68A1
:1006D00004F0030404FA0EF444EA0C0404604C68C9
:1006E00014F4403FC1D01E4CA56945F00105A56139
:1006F000A46904F001040194019C4FEA930C0CF1ED
:100700000205154C54F8255003F003044FEA840EFB
:100710000F2404FA0EF425EA0405B0F1904F3FF4DB
:100720006BAF104CA0420ED004F58064A0420CD0F8
:1007300004F58064A0420AD004F58064A0423FF42E
:1007400059AF052459E7012457E7022455E703244C
:1007500053E702B070BD00BF00000140000401403B
:1007600000100240000400480369194201D0012032
:100770007047002070470AB18161704781627047FD
:10078000002859D010B5044690F84130002B43D0D2
:10079000242384F841302268136823F00103136096
:1007A0006368226823F0706313612268936823F4FE
:1007B00000439360E368012B33D0A368226843F4BD
:1007C00004439360E368022B31D02268536843F0FE
:1007D000007343F4004353602268D36823F400435A
:1007E000D360236962691343A169226843EA012344
:1007F000D360E369216A22680B431360226813689F
:1008000043F00103136000206064202384F841302A
:10081000206384F8420010BD80F8403001F09EFC57
:10082000B6E7A368226843F400439360CAE72368ED
:100830004FF400625A60C8E70120704790F84130D9
:10084000DBB2202B24D190F84030012B22D00123A1
:1008500080F84030242380F841300268136823F088
:10086000010313600268136823F480531360026865
:100870001368194311600268136843F001031360A1
:10088000202380F84130002380F84030184670471C
:10089000022070470220704790F84130DBB2202BD5
:1008A00022D190F84030012B20D0012380F8403035
:1008B000242380F841300268136823F00103136099
:1008C0000268136823F4706343EA0121116002682F
:1008D000136843F001031360202380F841300023A4
:1008E00080F8403018467047022070470220704759
:1008F000002864D030B587B0044690F8A9323BB1E7
:10090000032384F8A932206801F0A9F900231FE02D
:1009100080F8A83201F0DAFCF2E75A1C02EB8201FF
:1009200004EBC1010120487002EB820104F8313070
:1009300003EB830104EBC101CB8602EB820C04EBD9
:10094000CC0C00208CF803008863C8630864D3B221
:1009500060688342E1D3002316E003EB830204EBDB
:10096000C202002182F8691182F8683182F86B11A5
:10097000C2F87811C2F87C1103EB830204EBC202C7
:10098000C2F880110133DBB29842E6D8A4465CF885
:10099000105BEE46BCE80F00AEE80F00DCF800305C
:1009A000CEF80030231D0ECB284601F062F900205E
:1009B00084F82400012384F8A93207B030BD012057
:1009C00070470000002800F0018370B582B0044633
:1009D000036813F0010F3BD0B54B5B6803F00C03C9
:1009E000042B1ED0B24B5B6803F00C03082B13D012
:1009F0006368B3F5803F68D0002B40F0928003F12C
:100A0000804303F504331A6822F480321A601A68AE
:100A100022F480221A605DE0A54B5B6813F4803FEE
:100A2000E6D04FF4003393FAA3F3A14B19684FF4C7
:100A3000003393FAA3F3B3FA83F303F01F03012205
:100A400002FA03F30B4203D06368002B00F0C0826C
:100A5000236813F0020F00F0C580954B5B6813F01C
:100A60000C0F00F09C80924B5B6803F00C03082B8A
:100A700000F08F802369002B00F0F280012292FAAF
:100A8000A2F3B3FA83F303F1845303F584139B00B9
:100A90001A60FFF767FC0546022393FAA3F3844B21
:100AA0001968022393FAA3F3B3FA83F303F01F0345
:100AB000012202FA03F30B4240F0C380FFF752FC1D
:100AC000401B0228E8D903208BE2794A136843F4DB
:100AD00080331360764AD36A23F00F03A1680B4377
:100AE000D3626368002B36D0FFF73CFC05464FF419
:100AF000003393FAA3F36E4B19684FF4003393FA63
:100B0000A3F3B3FA83F303F01F03012202FA03F302
:100B10000B429DD1FFF726FC401B6428E7D9032038
:100B20005FE2B3F5A02F09D0614B1A6822F480323E
:100B30001A601A6822F480221A60CBE703F180431E
:100B4000A3F53C331A6842F480221A601A6842F412
:100B500080321A60BEE7FFF705FC05464FF400330C
:100B600093FAA3F3524B19684FF4003393FAA3F3AB
:100B7000B3FA83F303F01F03012202FA03F30B42DB
:100B80003FF466AFFFF7EEFB401B6428E6D9032075
:100B900027E2474B5B6813F4803F7FF46BAF02237F
:100BA00093FAA3F3424B1968022393FAA3F3B3FA1F
:100BB00083F303F01F03012202FA03F30B4203D075
:100BC0002369934240F006823948036823F0F80312
:100BD0006169F82292FAA2F2B2FA82F201FA02F202
:100BE00013430360236813F0080F00F08D80A3699E
:100BF000002B61D0012191FAA1F2B2FA82F22D4BC1
:100C000013449B001960FFF7ADFB0546022393FADE
:100C1000A3F293FAA3F293FAA3F2254A516A93FA44
:100C2000A3F3B3FA83F303F01F03012202FA03F3E1
:100C30000B4269D1FFF796FB401B0228E6D903203F
:100C4000CFE11B48036823F0F8036169F82292FAA8
:100C5000A2F2B2FA82F201FA02F213430360C1E790
:100C6000012393FAA3F3B3FA83F303F1845303F557
:100C700084139B0000221A60FFF774FB05460223D1
:100C800093FAA3F30A4B1968022393FAA3F3B3FA76
:100C900083F303F01F03012202FA03F30B42A1D0F6
:100CA000FFF760FB401B0228E9D9032099E100BF50
:100CB0000010024020819010012292FAA2F2B2FAB2
:100CC00082F2B74B13449B0000221A60FFF74AFBE5
:100CD0000546022393FAA3F293FAA3F293FAA3F23E
:100CE000B04A516A93FAA3F3B3FA83F303F01F03F4
:100CF000012202FA03F30B4206D0FFF733FB401B3D
:100D00000228E6D903206CE1236813F0040F00F0F9
:100D1000A980A44BDB6913F0805F20D1A14BDA6975
:100D200042F08052DA61DB6903F080530193019B4A
:100D300001259D4B1B6813F4807F12D0E368012BC3
:100D400023D073BB03F1804303F504331A6A22F006
:100D500001021A621A6A22F004021A621AE00025DD
:100D6000E7E7914A136843F480731360FFF7FAFAD8
:100D700006468D4B1B6813F4807FDFD1FFF7F2FA34
:100D8000801B6428F5D903202BE1864A136A43F0BF
:100D900001031362E368002B3CD0FFF7E3FA064639
:100DA0002BE0052B09D07F4B1A6A22F001021A6250
:100DB0001A6A22F004021A62ECE77A4B1A6A42F0CD
:100DC00004021A621A6A42F001021A62E2E7754BE3
:100DD000196A022393FAA3F3B3FA83F303F01F0310
:100DE000012202FA03F319423BD1FFF7BBFA801B41
:100DF00041F28833984200F2EF80022393FAA3F283
:100E000093FAA3F3002BE2D1022393FAA3F3654BE9
:100E1000596ADEE7FFF7A6FA064615E0614B196A44
:100E2000022393FAA3F3B3FA83F303F01F0301221F
:100E300002FA03F3194214D0FFF794FA801B41F22F
:100E40008833984200F2CA80022393FAA3F293FAFD
:100E5000A3F3002BE2D1022393FAA3F3514B596A77
:100E6000DEE7B5BBE369002B00F0BA804D4A52685B
:100E700002F00C02082A00F09980022B2FD04FF0CC
:100E8000807393FAA3F3B3FA83F303F1845303F566
:100E900084139B0000221A60FFF764FA04464FF0A7
:100EA000007393FAA3F33F4B19684FF0007393FA62
:100EB000A3F3B3FA83F303F01F03012202FA03F34F
:100EC00019426BD0FFF74EFA001B0228E7D9032026
:100ED00087E0344AD36923F08053D361C2E74FF0EF
:100EE000807393FAA3F3B3FA83F303F1845303F506
:100EF00084139B0000221A60FFF734FA05464FF076
:100F0000007393FAA3F3274B19684FF0007393FA19
:100F1000A3F3B3FA83F303F01F03012202FA03F3EE
:100F2000194206D0FFF71EFA401B0228E7D903201A
:100F300057E01C494B6823F47413626A206A024329
:100F400013434B604FF0807393FAA3F3B3FA83F328
:100F500003F1845303F584139B0001221A60FFF709
:100F600001FA04464FF0007393FAA3F30D4B19688E
:100F70004FF0007393FAA3F3B3FA83F303F01F0364
:100F8000012202FA03F3194206D1FFF7EBF9001B25
:100F90000228E7D9032024E0002022E0002020E0FE
:100FA000208190100010024000700040012B1AD0E8
:100FB000104B5B6803F48031226A914215D103F42F
:100FC0007013626A934212D100200AE00120704738
:100FD000012006E0012004E0032002E0032000E0FD
:100FE000002002B070BD0120FBE70120F9E70120DD
:100FF000F7E700BF00100240164B5B6803F00C02DD
:10100000082A01D01448704703F470114FF470128D
:1010100092FAA2F2B2FA82F221FA02F20F49885C45
:101020000C4AD26A02F00F020F2191FAA1F1B1FA33
:1010300081F1CA400A498A5C13F4803F05D0064B0F
:10104000B3FBF2F303FB00F07047064B03FB00F029
:10105000704700BF0010024000127A000C350008F3
:101060001C35000800093D00002800F0BE8070B566
:101070000D460446614B1B6803F007038B420BD2FD
:101080005E4A136823F007030B431360136803F0F1
:1010900007038B4240F0AB80236813F0020F06D0A9
:1010A000574A536823F0F003A1680B435360236849
:1010B00013F0010F5AD06368012B2DD0022B40D0C2
:1010C000022292FAA2F24E4A1068022292FAA2F288
:1010D000B2FA82F202F01F02012101FA02F210427A
:1010E00000F0878046494A6822F0030213434B60B0
:1010F000FFF738F90646424B5B6803F00C03626861
:10110000B3EB820F32D0FFF72DF9801B41F2883309
:101110009842F0D9032067E04FF4003292FAA2F22D
:10112000374A10684FF4003292FAA2F2B2FA82F211
:1011300002F01F02012101FA02F20242D2D1012083
:1011400052E04FF0007292FAA2F22D4A10684FF06E
:10115000007292FAA2F2B2FA82F202F01F020121A8
:1011600001FA02F21042BDD101203DE0234B1B6881
:1011700003F00703AB420AD9204A136823F00703A0
:101180002B431360136803F00703AB4233D123688A
:1011900013F0040F06D01A4A536823F4E063E168A1
:1011A0000B435360236813F0080F07D0144A5368A9
:1011B00023F46053216943EAC1035360FFF71CFF26
:1011C0000F4B5B6803F0F003F02292FAA2F2B2FA3E
:1011D00082F2D3400B4AD35CD8400B4B18600B4BC8
:1011E0001868FFF77BF8002070BD012070470120D0
:1011F000FAE70120F8E70120F6E700BF00200240EF
:1012000000100240443500080800002004000020BF
:10121000014B1868704700BF0800002008B5FFF7B1
:10122000F7FF074B5B6803F4E0634FF4E06292FA68
:10123000A2F2B2FA82F2D340024AD35CD84008BD8F
:10124000001002405435000808B5FFF7E1FF074BD6
:101250005B6803F460534FF4605292FAA2F2B2FA60
:1012600082F2D340024AD35CD84008BD001002404D
:1012700054350008F0B583B00446036813F4803F8A
:1012800048D0914BDB6913F0805F40F0D4808E4BE7
:10129000DA6942F08052DA61DB6903F0805301932E
:1012A000019B0125894B1B6813F4807F00F0C580EA
:1012B000854B1B6A13F4407322D0626802F44072BB
:1012C0009A421DD08048016A21F440764FF4803361
:1012D00093FAA3F2B2FA82F27D4F3A4492004FF0B1
:1012E000010CC2F800C093FAA3F3B3FA83F33B44B2
:1012F0009B0000221A60066211F0010F40F0B280DC
:10130000714A136A23F4407361680B431362002D22
:1013100040F0CF80236813F0010F06D06A4A136BA8
:1013200023F00303A1680B431363236813F0020F38
:1013300006D0654A136B23F44033E1680B43136313
:10134000236813F0040F06D05F4A136B23F4402385
:1013500021690B431363236813F0200F06D05A4A08
:10136000136B23F01003E1690B431363236813F439
:10137000003F06D0544A536823F48003A16B0B430B
:101380005360236813F0400F06D04F4A136B23F0CD
:101390002003216A0B431363236813F0080F06D060
:1013A000494A136B23F4401361690B4313632368A9
:1013B00013F0100F06D0444A136B23F44003A169C5
:1013C0000B431363236813F4007F06D03E4A53682F
:1013D00023F40003E16A0B435360236813F0800F8A
:1013E00006D0394AD36A23F4F873616A0B43D36297
:1013F000236813F4807F06D0334AD36A23F47853EA
:10140000A16A0B43D362236813F4805F06D02E4A8F
:10141000136B23F48073216B0B431363236813F462
:10142000005F4DD0284A136B23F40073616B0B43AC
:101430001363002045E0002534E7244A136843F491
:1014400080731360FEF78EFF0646204B1B6813F473
:10145000807F7FF42DAFFEF785FF801B6428F4D9D1
:1014600003202EE0FEF77EFF064615E0164B196AB4
:10147000022393FAA3F3B3FA83F303F01F030122C9
:1014800002FA03F30B427FF43BAFFEF76BFF801BC6
:1014900041F28833984211D8022393FAA3F293FAC7
:1014A000A3F3002BE2D1022393FAA3F3064B596A6C
:1014B000DEE7D36923F08053D3612BE7032000E0FC
:1014C000002003B0F0BD00BF0010024000700040DB
:1014D0000081901000286FD010B50446436A33B9DC
:1014E0004368B3F5827F05D00023C36102E0002387
:1014F000036143610023A36294F85D30002B52D056
:10150000022384F85D302268136823F040031360DF
:10151000E368B3F5E06F4CD90022B3F5706F04D0E7
:10152000B3F5E06F01D00023A362636803F4827314
:10153000A16801F404410B43216901F002010B434E
:10154000616901F001010B43A16901F400710B43D2
:10155000E16901F038010B43216A01F080010B437E
:10156000A16A01F4005120680B430360638B03F010
:101570000403616A01F010010B43616B01F0080183
:101580000B43E16801F470610B43216813434B6026
:101590002268D36923F40063D3610020206601230D
:1015A00084F85D3010BD84F85C30204600F00CFEFD
:1015B000A6E74FF48052B0E70120704710B504460B
:1015C00083680269134342691343C2691A4301687D
:1015D0000B6823F4164323F00C0313430B600268DB
:1015E000536823F44053C1680B4353608269036A14
:1015F0001A4301688B6823F4306313438B600368DC
:101600007B4A93420DD07B4A93421CD07A4A934244
:101610003AD07A4A93424AD0794A93425AD0102318
:101620001FE0784B1B6B03F00303032B09D8DFE8A3
:1016300003F002040664012313E0042311E00823ED
:101640000FE010230DE06F4B1B6B03F44033B3F539
:10165000003F54D013D8002B53D0B3F5803F52D164
:101660000423E069B0F5004F69D0082B00F2B9807F
:10167000DFE803F092A890B7ABB7B7B7AE00B3F509
:10168000403F42D10223ECE75E4B1B6B03F4402347
:10169000B3F5002F3BD005D8DBB3B3F5802F3AD19B
:1016A0000423DEE7B3F5402F37D10223D9E7554BAA
:1016B0001B6B03F44013B3F5001F30D005D883B380
:1016C000B3F5801F2FD10423CBE7B3F5401F2CD1F6
:1016D0000223C6E74B4B1B6B03F44003B3F5000F2B
:1016E00025D005D82BB3B3F5800F24D10423B8E758
:1016F000B3F5400F21D10223B3E70223B1E708235A
:10170000AFE70023ADE71023ABE71023A9E70823D9
:10171000A7E70023A5E71023A3E71023A1E70823E9
:101720009FE700239DE710239BE7102399E70823F9
:1017300097E7002395E7102393E7102391E7082B01
:1017400049D8DFE803F0051F25482248484809002A
:10175000FFF764FD002840D06268530803EB4000A7
:10176000B0FBF2F080B2A0F110024FF6EF739A4294
:1017700035D820F00F03C0F3420018432368D86027
:1017800000201BE0FFF760FDE4E7FFF735FCE1E731
:101790001D48E1E71C4802E0FFF740FD18B363680D
:1017A00000EB5300B0FBF3F080B2A0F110024FF653
:1017B000EF739A4219D82368D8600020002363662B
:1017C000A36610BDFFF740FDE8E7FFF715FCE5E76E
:1017D0004FF40040E3E70120F0E70020EEE70120AE
:1017E000ECE70120EAE70020E8E70120E6E700BF98
:1017F000003801400044004000480040004C0040D8
:10180000005000400010024000127A00436A13F0BA
:10181000010F06D00268536823F40033816A0B433A
:101820005360436A13F0020F06D00268536823F432
:101830008033C16A0B435360436A13F0040F06D030
:101840000268536823F48023016B0B435360436A9F
:1018500013F0080F06D00268536823F40043416B6D
:101860000B435360436A13F0100F06D0026893686D
:1018700023F48053816B0B439360436A13F0200F72
:1018800006D00268936823F40053C16B0B43936046
:10189000436A13F0400F0AD00268536823F48013A0
:1018A000016C0B435360036CB3F5801F0BD0436A8C
:1018B00013F0800F06D00268536823F40023816C74
:1018C0000B43536070470268536823F4C003416CB4
:1018D0000B435360EBE72DE9F84305460F461646E8
:1018E0009946DDF820802C68E46937EA04030CBFD0
:1018F0004FF0010C4FF0000CB44553D1B8F1FF3F4D
:10190000F1D0FEF72FFDA0EB090040452DD8B8F12E
:10191000000F2AD02B681A6812F0040FE3D0DA699E
:1019200012F4006FDFD04FF400621A622A6852E8A6
:10193000003F23F4D07342E800310029F6D12A6831
:1019400002F1080353E8003F23F00103083242E8A4
:1019500000310029F3D12023AB67EB67C5F8803055
:10196000002385F8743003201DE02A6852E8003F08
:1019700023F4D07342E800310029F6D12A6802F13D
:10198000080353E8003F23F00103083242E8003126
:101990000029F3D12023AB67EB67002385F874306F
:1019A000032000E00020BDE8F8832DE9F04182B07B
:1019B0001E46836F202B56D104460D4690460029C3
:1019C00055D0002A55D090F87430012B53D0012304
:1019D00080F874300023C0F8803021238367FEF73D
:1019E000C1FC0746A4F85080A4F85280A368B3F560
:1019F000805F05D04FF00008002384F8743014E0B5
:101A0000236913B14FF00008F6E7A8460025F3E775
:101A100038F8023B2268C3F308031385B4F8522058
:101A200092B2013A92B2A4F85220B4F852309BB26A
:101A300073B100963B46002280212046FFF74BFF02
:101A4000D8B9002DE4D0236815F8012B1A85E5E7F5
:101A500000963B46002240212046FFF73CFF70B92C
:101A60002023A36700E0022002B0BDE8F08101203E
:101A7000FAE70120F8E70220F6E70320F4E7032065
:101A8000F2E72DE9F04383B01E46C36F202B71D1DE
:101A900004460D469046002970D0002A70D090F878
:101AA0007430012B6ED0012380F874300023C0F80D
:101AB00080302222C2670366FEF754FC0746A4F872
:101AC0005880A4F85A80A368B3F5805F06D0A3B904
:101AD000226972B9FF22A4F85C2011E0226922B9C0
:101AE00040F2FF12A4F85C200AE0FF22A4F85C2078
:101AF00006E07F22A4F85C2002E00022A4F85C202B
:101B0000B4F85C80B3F5805F05D04FF00009002386
:101B100084F8743014E0236913B14FF00009F6E73C
:101B2000A9460025F3E723689B8C08EA030329F8FC
:101B3000023BB4F85A2092B2013A92B2A4F85A2069
:101B4000B4F85A309BB28BB100963B46002220215C
:101B50002046FFF7C0FEB8B9002DE4D023689A8C68
:101B60005FFA88F3134005F8013BE2E72023E367BF
:101B7000002000E0022003B0BDE8F0830120FAE776
:101B80000120F8E70220F6E70320F4E730B583B040
:101B900004460023C0F88030FEF7E4FB05462268C7
:101BA000126812F0080F0DD123681B6813F0040FA0
:101BB00016D12023A367E3670020206684F8740011
:101BC00003B030BD6FF07E430093034600224FF414
:101BD00000112046FFF77FFE0028E5D00320EFE745
:101BE0006FF07E4300932B4600224FF48001204685
:101BF000FFF771FE0028DCD00320E1E768B310B5E1
:101C00000446836F03B32423A3672268136823F079
:101C1000010313602046FFF7D1FC012813D0636A4B
:101C2000BBB92268536823F49043536022689368D9
:101C300023F02A0393602268136843F001031360C2
:101C40002046FFF7A3FF10BD80F8743000F0F0FAD3
:101C5000D9E72046FFF7DAFDE3E701207047B0F847
:101C6000403023F47C535B045B0CA0F84030002030
:101C7000704784B0844601A880E80E000123ACF8C8
:101C800040300020ACF84000ACF84400ACF8500004
:101C900004B0704770B58AB0002405940694079488
:101CA00008940994294B5A6942F400125A615A69FE
:101CB00002F400120092009A5A6942F400225A611A
:101CC0005A6902F400220192019A5A6942F4800290
:101CD0005A615A6902F480020292029A5A6942F4E5
:101CE00000325A615A6902F400320392039A5A6927
:101CF00042F480225A615B6903F480230493049BBD
:101D0000134D22464FF608712846FEF734FD37235F
:101D100005934FF490130693079405A92846FEF700
:101D20003BFC4FF60873059301260696079408942A
:101D300005A92846FEF730FC05960694079405A9E8
:101D40004FF09040FEF728FC0AB070BD0010024032
:101D50000010004800B583B00A4B5A6942F00102F6
:101D60005A615B6903F001030193019B0022114654
:101D70000F20FEF70FFB0F20FEF744FB03B05DF8CA
:101D800004FB00BF0010024010B50446FEF738FA0D
:101D90000A2382B221460248FFF707FE10BD00BFAA
:101DA0004C0C002072B6FEE708B51148114B0360D9
:101DB000114B4360002383600122C26003614361D1
:101DC0008361C3610362FEF7DBFC50B90021084860
:101DD000FEF734FD38B900210548FEF75DFD20B956
:101DE00008BDFFF7DFFFFFF7DDFFFFF7DBFF00BFF9
:101DF000B0080020005400400E09002008B50F482C
:101E00000F4B03604FF482734360002383604FF4F1
:101E10004072C260036143614FF400728261082224
:101E2000C2610362436283620721C162036342634A
:101E3000FFF750FB00B908BDFFF7B4FFE80B002027
:101E40000030014008B50848084B03600823436090
:101E5000022383600361002383610362FEF748FD70
:101E600000B908BDFFF79EFFFC080020005C0040A1
:101E700008B50B480B4B03604FF4E133436000237C
:101E80008360C36003610C2242618361C3610362AA
:101E90004362FFF7B3FE00B908BDFFF783FF00BF41
:101EA0004C0C00200038014000B59FB028220021D2
:101EB00014A800F089FD00210F9110911191129149
:101EC00013913C22684600F07FFD032314934FF4E6
:101ED000A0231593012318931023199302231B9316
:101EE0004FF480331C934FF480131D9314A8FEF716
:101EF00069FDE8B90F230F93022310930023119378
:101F00004FF480621292139301210FA8FFF7ACF8EF
:101F100080B90A4B00930023029307934FF4800388
:101F20000E936846FFF7A6F930B91FB05DF804FBC1
:101F3000FFF738FFFFF736FFFFF734FF21000200FD
:101F40002DE9F04182B0FEF7EFF9FFF7ADFFFFF7A3
:101F5000A1FEFFF729FFFFF751FFFFF773FFFFF720
:101F6000F9FEFFF785FF142000F076FA8046684CF2
:101F70000FCCC8F80000C8F80410C8F80820C8F84A
:101F80000C302388A8F81030142000F065FA0746BA
:101F90000023036043608360C36003610D23ADF8D9
:101FA00004306BE03E195B4D4FF6FF730122314662
:101FB0002846FFF766FD01231A4631462846FFF7FB
:101FC000F4FC0134E4B201A9384600F0C7FE002851
:101FD000E8D0384600F012FA044610F0010F5FD046
:101FE00001224FF400714C48FEF7C5FB14F0020FBC
:101FF0005DD001224FF480714748FEF7BCFB14F01E
:10200000040F5BD001224FF480614348FEF7B3FB1D
:1020100014F0080F59D001224FF400413E48FEF75A
:10202000AAFB14F0100F57D001224FF400613A4878
:10203000FEF7A1FB14F0200F55D001224FF4804190
:102040003548FEF798FB14F0400F53D001224FF4AF
:1020500080513148FEF78FFB14F0800F51D00122E0
:102060004FF400512C48FEF786FB2C48FFF78CFEFE
:1020700000233B607B60BB60FB603B6101214FF054
:102080009040FEF771FB04460028F7D14046FEF76A
:10209000B7F8642382B241461E48FFF786FC92E7F8
:1020A00000224FF400711C48FEF765FB9EE70022FA
:1020B0004FF480711848FEF75EFBA0E700224FF452
:1020C00080611548FEF757FBA2E700224FF400415C
:1020D0001148FEF750FBA4E700224FF400610E48C0
:1020E000FEF749FBA6E700224FF480410A48FEF7BD
:1020F00042FBA8E700224FF480510748FEF73BFB64
:10210000AAE700224FF400510348FEF734FBACE786
:102110002C3500084C0C0020001000484035000809
:1021200000B583B00C4B9A6942F001029A619A693A
:1021300002F001020092009ADA6942F08052DA61FC
:10214000DB6903F080530193019B0720FEF710F930
:1021500003B05DF804FB00BF0010024010B588B06A
:102160000023039304930593069307930268134B8C
:102170009A4201D008B010BD114C636943F480232A
:102180006361636903F480230193019BC02303937C
:102190001223049301230593032306930423079337
:1021A00003A90848FEF7F8F9E36943F40013E36173
:1021B000E36903F400130293029BDBE70054004041
:1021C000001002400004004800B589B000230393CA
:1021D00004930593069307930268144B9A4202D026
:1021E00009B05DF804FB03F560439A6942F480523C
:1021F0009A619A6902F480520192019A5A6942F4F2
:1022000000325A615B6903F400330293029BE023BE
:10221000039302230493032306930523079303A93F
:102220004FF09040FEF7B8F9DAE700BF0030014008
:1022300010B588B000230393049305930693079386
:1022400002681E4B9A4201D008B010BD044603F547
:1022500058439A6942F480429A619A6902F4804232
:102260000192019A5A6942F400225A615B6903F4AF
:1022700000230293029B302303930223049303233E
:1022800006930723079303A90D48FEF785F90D4828
:102290000D4B03600023436083608022C2600361B2
:1022A00043618361C361FEF7F5F818B9054B2367F5
:1022B0005C62C9E7FFF776FDF8E700BF0038014030
:1022C000000800486C0800205800024010B588B093
:1022D0000023039304930593069307930268134B1B
:1022E0009A4201D008B010BD114C636943F4003329
:1022F0006361636903F400330193019B4FF4C0539E
:10230000039302230493032306930E23079303A945
:102310004FF09040FEF740F9E36943F40003E361B6
:10232000E36903F400030293029BDBE7005C0040D7
:1023300000100240FEE7FEE7FEE7FEE7FEE770471B
:102340007047704708B5FEF701F808BD08B50248A8
:10235000FEF7C8F808BD00BF6C08002010B50346A2
:102360000C4A0D490D48006840B10C480068034410
:10237000521A934206D8094A136010BD0748084C08
:102380000460F2E700F03EF80C2303604FF0FF30EA
:10239000F3E700BF00A0002000040000D00C0020E4
:1023A000180D002070470000DFF834D00D480E49AA
:1023B0000E4A002302E0D458C4500433C4188C429F
:1023C000F9D30B4A0B4C002301E013600432A24204
:1023D000FBD3FFF7E7FF00F01BF8FFF7B1FDFEE7C7
:1023E00000A00020000000204C08002070360008EB
:1023F0004C080020140D0020FEE700000A220021F6
:1024000000F0F0BD014B1868704700BF0C000020C1
:1024100070B50D4E0D4D761BB61006D0002455F844
:10242000043B01349847A642F9D1094E094D761B69
:1024300001F060F8B61006D0002455F8043B0134D2
:102440009847A642F9D170BD64360008643600088A
:102450006C36000864360008024B0146186800F02C
:1024600003B800BF0C0000202DE9F04F01F10B066E
:10247000162E83B0044624D8102900F2BA8000F04A
:10248000F5FA102618220220B54F3A44A2F10801AD
:1024900053688B4200F0BA805A68D96822F0030270
:1024A0001A449D68E9608D60516841F00101204641
:1024B000516003F1080500F0DFFA284603B0BDE8DB
:1024C000F08F36F0070600F19480B14200F291805F
:1024D00000F0CCFAB6F5FC7FC0F09A81730A00F0E8
:1024E0008F80042B00F26F81B30903F1390003F1EF
:1024F000380CC3009A4F3B44A3F108055B689D422A
:1025000006D10CE0002980F22781DB689D4206D0CD
:102510005A6822F00302911B0F29F3DD60463D69E2
:10252000DFF840C265457CD06A6822F00302931B45
:102530000F2B00F37B81002BC7E904CC80F26C8168
:10254000B2F5007F80F01A81D308796801334FEA31
:10255000521E012202FA0EF20A4357F833E0C5F880
:1025600008E007EBC3010839E9607A6047F83350A7
:10257000CEF80C50831001219940914257D8114256
:1025800006D120F003004900114200F10400FAD006
:1025900007EBC0094D468646D5F80C80454508D165
:1025A0001DE1002B80F22481D8F80C80454500F015
:1025B0001681D8F8042022F00302931B0F2BF0DDC4
:1025C0002046D8E9025408EB060146F00106C8F897
:1025D0000460EC60A56043F00104C7E90411C1E99F
:1025E00002CC4C6048F8023000F046FA08F10805C9
:1025F00002E00C2323600025284603B0BDE8F08FDD
:102600004FF4007340204FF03F0C73E7D3689A42B9
:1026100008BF02307FF440AF3D69DFF848C165452F
:1026200082D17A688310012199409142A7D9BD686F
:102630006B6823F003094E4503D8A9EB06030F2B63
:102640007ADCDFF824B1494BDBF800201B6801324B
:10265000334405EB090A00F0338103F580530F334F
:1026600023F47F6828F00F084146204600F00AFA5C
:10267000411C024600F0F380824500F2EE803C4BA4
:10268000196841441960084600F04E81DBF80010DB
:10269000019301311BBFA2EB0A0A5044CBF8002082
:1026A000186012F0070B00F01781CBF108010A4403
:1026B000CBF5805190440831A1EB0801C1F30B0A1E
:1026C00051462046009200F0DDF9421CDDE900236E
:1026D00000F04F81801A00EB0A081968BA6048F0D0
:1026E00001005144BD425060196000F02981B9F1E8
:1026F0000F0F40F227816868A9F10C0C2CF0070C31
:1027000000F0010040EA0C0068604FF0050E05EB98
:102710000C00BCF10F0FC0E901EE00F232815068ED
:102720001546144B1A688A4238BF1960124B1A6852
:102730008A4238BF196094E0AA1943F0010346F0B9
:1027400001066E602046BA60536000F095F90835C6
:10275000284603B0BDE8F08FD9681A44A1E600BF4F
:10276000380400204004002040080020040D002010
:10277000D40C0020FC0C0020000D0020B2F5206FCE
:102780004FEA522363D3142B00F2B78003F15C01AC
:10279000C9005B3307EB010E7958AEF1080E8E4588
:1027A00000F091804B6823F00303934202D98968BB
:1027B0008E45F7D1D1F80CE07A68C5E9021ECEF853
:1027C0000850CD60D6E6142B59D9542B00F29D80C9
:1027D000330B03F16F0003F16E0CC3008AE60EF1B8
:1027E000010E1EF0030F05F108057FF4D5AE51E090
:1027F000424445465368D8F80C1043F00103536037
:1028000055F8083F2046D9608B6000F035F9F3E6B3
:10281000F00806F1080237E62A442046536843F0E0
:1028200001035360083500F027F9E5E6A9192046B1
:1028300046F0010643F001046E60C7E90411C1E9E6
:1028400002CC4C60AB5000F017F90835D4E6930980
:1028500003F13901C90038339CE7BD425FD0BD6840
:10286000686820F003084645A8EB060302D80F2B42
:102870003FF762AF204600F0FFF80025BCE603F109
:102880005C0003F15B0CC30034E659F808394B4592
:1028900040F0968010F0030F00F1FF30F5D17B6817
:1028A00023EA01037B60490099423FF6C0AE19B9A3
:1028B000BDE649000EF1040E1942FAD0704667E6F3
:1028C00003F11008D0E69A104FF001087B6808FA6F
:1028D00002F21A437A6070E702EB08014942C1F341
:1028E0000B0A51462046009200F0CCF8431CDDE96B
:1028F00000237FF4EFAEDA46EFE6542B25D8130B16
:1029000003F16F01C9006E3344E7B3F5AA7F25D800
:10291000F30B03F1780003F1770CC300EAE5294BD0
:10292000186840441860B1E6CAF30B0CBCF1000F04
:102930007FF4ACAEBD68C84448F001006860F0E6C2
:102940001546EEE60123536094E7B3F5AA7F23D83A
:10295000D30B03F17801C90077331BE740F25452DF
:10296000934223D8B30C03F17D0003F17C0CC30028
:10297000C0E5ABF1080BD844A8EB02084FF0000A01
:10298000ABE605F108012046009300F0B7FBBD68F7
:10299000009B68681968C4E640F254518B420BD81A
:1029A000930C03F17D01C9007C33F3E64FF47E7391
:1029B0007F204FF07E0C9DE54FF47E717E23E9E68B
:1029C0007B6870E7D40C0020830730B548D0541ED4
:1029D000002A3FD0CAB2034601E0013C3AD303F8D3
:1029E000012B9D07F9D1032C2DD9CDB245EA052540
:1029F0000F2C45EA054536D9A4F1100222F00F0C40
:102A000003F1200EE6444FEA121C03F1100242E9E2
:102A1000045542E9025510327245F8D10CF1010219
:102A200014F00C0F03EB021204F00F0C13D0ACF1F6
:102A3000040323F003030433134442F8045B93427A
:102A4000FBD10CF003042CB1CAB21C4403F8012BD7
:102A50009C42FBD130BD64461346002CF4D1F9E70B
:102A600003461446BFE71A46A446E0E7014800F0D3
:102A70004BBC00BF0C0D0020014800F047BC00BF5C
:102A80000C0D002038B5074D0022044608462A6088
:102A9000FFF764FC431C00D038BD2B68002BFBD033
:102AA000236038BD100D00202DE9F04F012BADF251
:102AB0001C4D1D4681460F46904640F2458101233C
:102AC00000249C4619464FF0FF3006E0A3EB000CB3
:102AD0001C46012163189D4210D908EB000218F82A
:102AE0000360525C9642F1D300F082804FF0010CFB
:102AF00020466146644463189D42EED8CDF808C074
:102B00004FF0010C002461464FF0FF36634606E0AB
:102B1000A3EB060C1C46012163189D420FD908EB5C
:102B2000010218F803E0925D9645F1D866D04FF0A7
:102B3000010C26466146644463189D42EFD8013675
:102B400000F1010BB34502D8CDF808C0B34605AB80
:102B50000DF2144243F8045F9342FBD1002D00F0C4
:102B6000F8806C1E06AE08F1FF3208EB04000196F7
:102B700012F8011FD3432B444344904246F82130BE
:102B8000F6D1029B5A4608EB0301404600F0C0FB19
:102B9000002840F08180029B0BF1FF32EB1A824645
:102BA00006460592039309EB060E019A1EF80430BF
:102BB00052F8233043B3BAF1000F04D0029A934283
:102BC000039A38BF13461E444FF0000A7B1BB342E2
:102BD000E9D209EB070045F4006100F033FC07443B
:102BE0007B1BB342DFD200200DF21C4DBDE8F08FFD
:102BF0008C4512BF0131644401216BE761450ABF76
:102C000064180131012187E7D3455B4638BF53463D
:102C1000A34211D2591E9A1941444A4402E0013399
:102C2000A34209D212F8010B11F801CF8445F6D066
:102C3000CBF101021644C6E7D345059B7DD90BEBCA
:102C400006024A4408EB0B01CDF810B002E05345F0
:102C500016D0034612F8010D11F801CD844503F199
:102C6000010B03F1FF30F2D05B46DDF810B00AF142
:102C7000010A9A450BD8029BDDF80CA01E44A5E77B
:102C800053460AF1010A9A45DDF810B0F3D97046AF
:102C90000DF21C4DBDE8F08FA5EB0B035B4538BF73
:102CA0005B46013304930BF1FF330293CBF1010335
:102CB0000026039345F4006A09EB060E019A1EF8FC
:102CC000043052F823306BB11E447B1B9E42F3D973
:102CD00009EB0700514600F0B5FB07447B1B9E4201
:102CE000EAD980E7A34514D2029B0BEB060208EB5E
:102CF00003014A445B4602E00133A34209D212F8C1
:102D0000010B11F801CF8445F6D0039A16441E44F6
:102D1000DBE7BBF1000F12D00BEB0601494408EBD7
:102D20000B0201E043450AD012F801CD11F8010D64
:102D300084451346F6D0049BC6E75B4697E770468A
:102D40000DF21C4DBDE8F08F012302934FF0000BF4
:102D5000FDE606AB4FF0FF34019312E72DE9F04199
:102D60000D46097890B00446002953D06A78002AAD
:102D700000F08380AB78002B50D0E878002800F07A
:102D800083802B79002B57D02846FDF739FA064669
:102D900040F40071204600F055FB86425CD8FE2EC0
:102DA00000F28780801B27184022711C6846FFF7BD
:102DB0000BFE7EB16A1E5FFA86FC901912F8013F85
:102DC00003F03F0340336B44A91A6144824203F885
:102DD000401CF3D1013CA35D03F03F0340336B443F
:102DE00013F8400C0444A74203D23AE04444A742FB
:102DF00037D314F806C00CF03F0C0CF140030DEB78
:102E0000030C2046324629461CF8408C00F080FA1C
:102E10000028EBD1204610B0BDE8F081007842EAEE
:102E2000014200E00C4640EA0343611CA0B19A4213
:102E30006078F7D1013CEDE722786AB1296809BAD8
:102E400001E099421ED042EA0323204614F8012FE4
:102E5000002AF6D1994215D00024204610B0BDE8D2
:102E6000F081BB5DB819002BF6D04FF4006100F083
:102E7000E9FA0744BC42ADD9EEE710B0BDE8F04135
:102E800000F07ABAC41EC5E7120442EA016242EABF
:102E900003232178024600E02C4641EA0200651C2B
:102EA00002020029D8D0B3EB002F6178F4D1023CA4
:102EB000B0E7014633462A46204610B0BDE8F0414F
:102EC000FFF7F2BD2DE9F04F814645488E46754625
:102ED0001EF801CB10F80C4014F00804F7D1BCF137
:102EE0002D0FE34654D0BCF12B0F08BF9EF800B065
:102EF0006FF0004808BF05F1020E1BB1102B4FD038
:102F00001F4604E0BBF1300F55D00A231F460025B1
:102F1000B8FBF7F6284607FB168A07E0864215D36A
:102F200029D007FB00C001251EF801BBABF1300C16
:102F3000BCF1090F06D9ABF1410CBCF1190F08D84F
:102F4000ABF1370C63450DDD002DE7DA4FF0FF35AF
:102F5000EAE7ABF1610CBCF1190F03D8ABF1570CE8
:102F60006345F1DC002D0BDB04B140420AB195BB97
:102F70001160BDE8F08FE245D3DA4FF0FF35D3E7BB
:102F80002223C9F800301AB30EF1FF314046EFE7B3
:102F90009EF800B04FF0004805F1020E0124ACE7A6
:102FA000BBF1300FACD19EF8000000F0DF005828D4
:102FB00007D01F46ABE79EF8003003F0DF03582B25
:102FC0000BD110279EF801B03B460EF1020E9EE792
:102FD0004046BDE8F08F8046D6E708231F4696E7B7
:102FE00061350008012A09D0242A134606D8074A69
:102FF000844610680A466146FFF764BF10B5FFF7C4
:1030000001FA16230360002010BD00BF0C00002051
:10301000024B13B1024800F005B8704700000000F1
:1030200031300008002301461A46184600F01CBA49
:1030300038B5084B084D5B1B9C1007D0043B1D4462
:10304000013C55F804399847002CF9D1BDE83840C7
:1030500000F056BA703600086C360008F8B5244FF8
:103060000C460646FFF702FDBA685568C4F57E6354
:103070000F3325F003052B4423F47F6323F00F0364
:10308000A3F58054B4F5805F07DB00213046FFF7DD
:10309000F9FCBB682B44984204D03046FFF7ECFCA7
:1030A0000020F8BD61423046FFF7ECFC01300DD046
:1030B000104ABB682D1B45F001055D601368304662
:1030C0001B1B1360FFF7D8FC0120F8BD0021304620
:1030D000FFF7D8FCBA68831A0F2BDEDD43F001033B
:1030E0005360054B03491B68C01A0860D5E700BF51
:1030F00038040020D40C002040080020002961D0B2
:10310000F8B50C460646FFF7B1FC54F8042C7B4F8B
:10311000A4F1080522F0010105EB010CB868DCF808
:103120000430604523F0030300F08B80D207CCF815
:10313000043032D454F8082CAD1A1144AA6807F1AF
:10314000080082426AD00CEB0304D4F804E0EC6877
:10315000D4601EF0010FA26000F0978041F00103DF
:103160006B60CCF80010B1F5007F35D27A68CB08DF
:1031700048090121013381401143796007EBC30203
:1031800057F83310083AC5E9021247F83350CD60BA
:103190003046BDE8F840FFF76FBC0CEB0302526805
:1031A000D00710D4194407F10800DCF80830834236
:1031B00073D0DCF80C20DA60936041F001036B609F
:1031C0006950D0E7704741F00103B1F5007F44F842
:1031D000043CCCF80010C9D3B1F5206F4FEA51235D
:1031E00048D28B0903F1390003F13802C300F81803
:1031F000FB580838984259D05A6822F003028A4294
:1032000002D99B689842F7D1D868C5E90230856039
:10321000DD603046BDE8F840FFF72EBC0CEB030242
:103220005268D20763D40B44DCE90212CA60916091
:1032300043F001026A603046EB50BDE8F840FFF70A
:103240001BBC0B44D10707D454F8082CAD1A134407
:10325000D5E90212CA60916043F001026A60284A0F
:10326000BD6012689A4293D8264B30461968FFF722
:10327000F5FE8DE7142B0AD9542B1FD80B0B03F145
:103280006F0003F16E02C300B1E719448DE703F14B
:103290005C0003F15B02C300A9E741F00103C7E949
:1032A0000455C5E902006B60695071E779689210B6
:1032B000012404FA02F20A437A60A6E7B3F5AA7F72
:1032C00006D8CB0B03F1780003F17702C3008EE739
:1032D00040F25452934206D88B0C03F17D0003F167
:1032E0007C02C30083E74FF47E737E227FE741F0C8
:1032F00001036B60CCF800104AE700BF38040020DF
:1033000044080020040D0020704700BF704700BF34
:10331000032A10B517D940EA010C1CF0030F04462C
:103320000B4623D119462046D1F800E0D0F800C062
:10333000F44504F1040403F1040317D1043A032A09
:1033400020461946EED8541EA2B100F1FF3C0139C7
:1033500001E0C3180CD01CF801EF11F8012F9645BD
:10336000A4EB0C03F5D0AEEB020010BD541EECE74D
:10337000184610BD104610BD11F0FF01034644D0A1
:10338000820732D110B5046841EA012E4EEA0E4E92
:103390008EEA0402A2F1013323EA0203A4F101320E
:1033A00022EA0402134313F0803F0FD150F8044F78
:1033B00084EA0E0CA4F10133ACF1013223EA0403D8
:1033C00022EA0C02134313F0803FEFD0037823B9B5
:1033D00036E010F8013F002B32D09942F9D110BDF0
:1033E0008A4211D09A071846CCD0184613F8012B00
:1033F000002AF5D1104670479907184607D018469D
:1034000001330278002AF7D170478207F7D10268AA
:10341000A2F1013323EA020313F0803F08D150F8F0
:10342000042FA2F1013323EA020313F0803FF6D008
:103430000378002BE8D010F8013F002BFBD1704738
:10344000184610BD71B1034600EB010C01E0634565
:1034500006D01A46013311780029F8D1101A7047A6
:10346000181A7047084670472DE9F047DFF87CA02E
:103470000646DAF8000098460F469146FFF744FFEB
:103480001B4B1B68D3F8484124B365681F2D26DC0D
:103490005EB96B1C0235DAF80000636044F82570F1
:1034A000FFF734FF0020BDE8F08704EB850101231E
:1034B000C1F88890D4F88821AB401A43022EC4F892
:1034C0008821C1F80881E4D1D4F88C211343C4F8D1
:1034D0008C31DEE703F5A674C3F84841D5E7DAF886
:1034E0000000FFF713FF4FF0FF30DCE74808002033
:1034F0005C350008F8B500BFF8BC08BC9E467047B4
:0C350000F8B500BFF8BC08BC9E46704740
:10350C0002030405060708090A0B0C0D0E0F101018
:10351C000102030405060708090A0B0C0D0E0F1017
:10352C00456E746572206120636F6D6D616E643AD7
:10353C00200000000D0A0000000000000000000048
:10354C00010203040607080900000000010203043D
:10355C0010000020002020202020202020202828BF
:10356C002828282020202020202020202020202037
:10357C002020202020881010101010101010101077
:10358C0010101010100404040404040404040410A7
:10359C001010101010104141414141410101010135
:1035AC0001010101010101010101010101010101FF
:1035BC00101010101010424242424242020202020B
:1035CC0002020202020202020202020202020202CF
:1035DC00101010102000000000000000000000007F
:1035EC0000000000000000000000000000000000CF
:1035FC0000000000000000000000000000000000BF
:10360C0000000000000000000000000000000000AE
:10361C00000000000000000000000000000000009E
:10362C00000000000000000000000000000000008E
:10363C00000000000000000000000000000000007E
:10364C00000000000000000000000000000000006E
:08365C00000000000000000066
:0836640011300008E501000827
:04366C00C101000890
:10367000010000001000000000127A00100000207D
:1036800000000000FC02002064030020CC030020A6
:10369000000000000000000000000000000000002A
:1036A000000000000000000000000000000000001A
:1036B000000000000000000000000000000000000A
:1036C00000000000000000000000000000000000FA
:1036D00000000000000000000000000000000000EA
:1036E00000000000000000000000000000000000DA
:1036F00000000000000000000000000000000000CA
:1037000000000000000000000000000000000000B9
:1037100000000000000000000000000000000000A9
:103720000000000000000000010000000000000098
:103730000E33CDAB34126DE6ECDE05000B0000005D
:103740000000000000000000000000000000000079
:103750000000000000000000000000000000000069
:103760000000000000000000000000000000000059
:103770000000000000000000000000000000000049
:103AB0003804002038040020400400204004002086
:103AC0004804002048040020500400205004002036
:103AD00058040020580400206004002060040020E6
:103AE0006804002068040020700400207004002096
:103AF0007804002078040020800400208004002046
:103B000088040020880400209004002090040020F5
:103B10009804002098040020A0040020A0040020A5
:103B2000A8040020A8040020B0040020B004002055
:103B3000B8040020B8040020C0040020C004002005
:103B4000C8040020C8040020D0040020D0040020B5
:103B5000D8040020D8040020E0040020E004002065
:103B6000E8040020E8040020F0040020F004002015
:103B7000F8040020F80400200005002000050020C3
:103B80000805002008050020100500201005002071
:103B90001805002018050020200500202005002021
:103BA00028050020280500203005002030050020D1
:103BB0003805002038050020400500204005002081
:103BC0004805002048050020500500205005002031
:103BD00058050020580500206005002060050020E1
:103BE0006805002068050020700500207005002091
:103BF0007805002078050020800500208005002041
:103C000088050020880500209005002090050020F0
:103C10009805002098050020A0050020A0050020A0
:103C2000A8050020A8050020B0050020B005002050
:103C3000B8050020B8050020C0050020C005002000
:103C4000C8050020C8050020D0050020D0050020B0
:103C5000D8050020D8050020E0050020E005002060
:103C6000E8050020E8050020F0050020F005002010
:103C7000F8050020F80500200006002000060020BE
:103C8000080600200806002010060020100600206C
:103C9000180600201806002020060020200600201C
:103CA00028060020280600203006002030060020CC
:103CB000380600203806002040060020400600207C
:103CC000480600204806002050060020500600202C
:103CD00058060020580600206006002060060020DC
:103CE000680600206806002070060020700600208C
:103CF000780600207806002080060020800600203C
:103D000088060020880600209006002090060020EB
:103D10009806002098060020A0060020A00600209B
:103D2000A8060020A8060020B0060020B00600204B
:103D3000B8060020B8060020C0060020C0060020FB
:103D4000C8060020C8060020D0060020D0060020AB
:103D5000D8060020D8060020E0060020E00600205B
:103D6000E8060020E8060020F0060020F00600200B
:103D7000F8060020F80600200007002000070020B9
:103D80000807002008070020100700201007002067
:103D90001807002018070020200700202007002017
:103DA00028070020280700203007002030070020C7
:103DB0003807002038070020400700204007002077
:103DC0004807002048070020500700205007002027
:103DD00058070020580700206007002060070020D7
:103DE0006807002068070020700700207007002087
:103DF0007807002078070020800700208007002037
:103E000088070020880700209007002090070020E6
:103E10009807002098070020A0070020A007002096
:103E2000A8070020A8070020B0070020B007002046
:103E3000B8070020B8070020C0070020C0070020F6
:103E4000C8070020C8070020D0070020D0070020A6
:103E5000D8070020D8070020E0070020E007002056
:103E6000E8070020E8070020F0070020F007002006
:103E7000F8070020F80700200008002000080020B4
:103E80000808002008080020100800201008002062
:103E90001808002018080020200800202008002012
:103EA00028080020280800203008002030080020C2
:0C3EB000FFFFFFFF00000200080D0020D3
:04000005080023A923
:00000001FF
